{"address":"0x9Ff4c94Fcd75B935552DF70B10Bac89bA9017C21","bytecode":"0x61012060405260008060006101000a81548160ff0219169083151502179055503480156200002c57600080fd5b5060405162001f7138038062001f71833981810160405281019062000052919062000262565b600073ffffffffffffffffffffffffffffffffffffffff168473ffffffffffffffffffffffffffffffffffffffff161415620000c5576040517f08c379a0000000000000000000000000000000000000000000000000000000008152600401620000bc906200030b565b60405180910390fd5b600073ffffffffffffffffffffffffffffffffffffffff168373ffffffffffffffffffffffffffffffffffffffff16141562000138576040517f08c379a00000000000000000000000000000000000000000000000000000000081526004016200012f906200030b565b60405180910390fd5b8473ffffffffffffffffffffffffffffffffffffffff1660808173ffffffffffffffffffffffffffffffffffffffff1660601b815250508373ffffffffffffffffffffffffffffffffffffffff1660a08173ffffffffffffffffffffffffffffffffffffffff1660601b815250508273ffffffffffffffffffffffffffffffffffffffff1660c08173ffffffffffffffffffffffffffffffffffffffff1660601b815250508160e081815250508062ffffff166101008162ffffff1660e81b81525050505050505062000430565b6000815190506200021781620003c8565b92915050565b6000815190506200022e81620003e2565b92915050565b6000815190506200024581620003fc565b92915050565b6000815190506200025c8162000416565b92915050565b600080600080600060a086880312156200027b57600080fd5b60006200028b888289016200021d565b95505060206200029e8882890162000206565b9450506040620002b18882890162000206565b9350506060620002c4888289016200024b565b9250506080620002d78882890162000234565b9150509295509295909350565b6000620002f3600f836200032d565b915062000300826200039f565b602082019050919050565b600060208201905081810360008301526200032681620002e4565b9050919050565b600082825260208201905092915050565b60006200034b8262000366565b9050919050565b60006200035f826200033e565b9050919050565b600073ffffffffffffffffffffffffffffffffffffffff82169050919050565b600062ffffff82169050919050565b6000819050919050565b7f696e76616c696420616464726573730000000000000000000000000000000000600082015250565b620003d3816200033e565b8114620003df57600080fd5b50565b620003ed8162000352565b8114620003f957600080fd5b50565b620004078162000386565b81146200041357600080fd5b50565b620004218162000395565b81146200042d57600080fd5b50565b60805160601c60a05160601c60c05160601c60e0516101005160e81c611a88620004e9600039600081816106660152610932015260006106b901526000818161043601526108f601526000818160c701528181610129015281816101da0152818161032c0152818161083901528181610864015281816108ba01528181610a600152610aac0152600081816101fb015281816105f9015281816106fc01528181610885015281816109a80152610a810152611a886000f3fe608060405234801561001057600080fd5b50600436106100415760003560e01c806325007a0f146100465780638d72298814610062578063b03a633e14610092575b600080fd5b610060600480360381019061005b9190611158565b6100c2565b005b61007c600480360381019061007791906111aa565b61057c565b60405161008991906116c8565b60405180910390f35b6100ac60048036038101906100a791906111f9565b6107c9565b6040516100b991906116c8565b60405180910390f35b6100ee7f0000000000000000000000000000000000000000000000000000000000000000333084610aff565b6101d56040518060400160405280601e81526020017f20746f6b656e20312062616c616e6365206f66204265657377617020697300008152507f000000000000000000000000000000000000000000000000000000000000000073ffffffffffffffffffffffffffffffffffffffff166370a08231306040518263ffffffff1660e01b81526004016101809190611565565b60206040518083038186803b15801561019857600080fd5b505afa1580156101ac573d6000803e3d6000fd5b505050506040513d601f19601f820116820180604052508101906101d09190611181565b610c57565b6102207f00000000000000000000000000000000000000000000000000000000000000007f000000000000000000000000000000000000000000000000000000000000000083610cf3565b6000737a250d5630b4cf539739df2c5dacb4c659f2488d73ffffffffffffffffffffffffffffffffffffffff1663ad5c46486040518163ffffffff1660e01b815260040160206040518083038186803b15801561027c57600080fd5b505afa158015610290573d6000803e3d6000fd5b505050506040513d601f19601f820116820180604052508101906102b491906110c5565b90506000600367ffffffffffffffff8111156102f9577f4e487b7100000000000000000000000000000000000000000000000000000000600052604160045260246000fd5b6040519080825280602002602001820160405280156103275781602001602082028036833780820191505090505b5090507f000000000000000000000000000000000000000000000000000000000000000081600081518110610385577f4e487b7100000000000000000000000000000000000000000000000000000000600052603260045260246000fd5b602002602001019073ffffffffffffffffffffffffffffffffffffffff16908173ffffffffffffffffffffffffffffffffffffffff168152505081816001815181106103fa577f4e487b7100000000000000000000000000000000000000000000000000000000600052603260045260246000fd5b602002602001019073ffffffffffffffffffffffffffffffffffffffff16908173ffffffffffffffffffffffffffffffffffffffff16815250507f00000000000000000000000000000000000000000000000000000000000000008160028151811061048f577f4e487b7100000000000000000000000000000000000000000000000000000000600052603260045260246000fd5b602002602001019073ffffffffffffffffffffffffffffffffffffffff16908173ffffffffffffffffffffffffffffffffffffffff1681525050737a250d5630b4cf539739df2c5dacb4c659f2488d73ffffffffffffffffffffffffffffffffffffffff166338ed17398460018433426040518663ffffffff1660e01b815260040161051f9594939291906116e3565b600060405180830381600087803b15801561053957600080fd5b505af115801561054d573d6000803e3d6000fd5b505050506040513d6000823e3d601f19601f8201168201806040525081019061057691906110ee565b50505050565b60008060009054906101000a900460ff16156105cd576040517f08c379a00000000000000000000000000000000000000000000000000000000081526004016105c490611670565b60405180910390fd5b60016000806101000a81548160ff0219169083151502179055506105f383333087610aff565b61061e837f000000000000000000000000000000000000000000000000000000000000000086610cf3565b60006040518061010001604052808573ffffffffffffffffffffffffffffffffffffffff1681526020018473ffffffffffffffffffffffffffffffffffffffff1681526020017f000000000000000000000000000000000000000000000000000000000000000062ffffff1681526020013373ffffffffffffffffffffffffffffffffffffffff1681526020014281526020018681526020017f00000000000000000000000000000000000000000000000000000000000000008152602001600073ffffffffffffffffffffffffffffffffffffffff1681525090507f000000000000000000000000000000000000000000000000000000000000000073ffffffffffffffffffffffffffffffffffffffff1663414bf389826040518263ffffffff1660e01b81526004016107539190611690565b602060405180830381600087803b15801561076d57600080fd5b505af1158015610781573d6000803e3d6000fd5b505050506040513d601f19601f820116820180604052508101906107a59190611181565b91505060008060006101000a81548160ff0219169083151502179055509392505050565b60008060009054906101000a900460ff161561081a576040517f08c379a000000000000000000000000000000000000000000000000000000000815260040161081190611670565b60405180910390fd5b60016000806101000a81548160ff02191690831515021790555061085f7f00000000000000000000000000000000000000000000000000000000000000003085610e48565b6108aa7f00000000000000000000000000000000000000000000000000000000000000007f000000000000000000000000000000000000000000000000000000000000000085610cf3565b60006040518061010001604052807f000000000000000000000000000000000000000000000000000000000000000073ffffffffffffffffffffffffffffffffffffffff1681526020017f000000000000000000000000000000000000000000000000000000000000000073ffffffffffffffffffffffffffffffffffffffff1681526020017f000000000000000000000000000000000000000000000000000000000000000062ffffff1681526020013373ffffffffffffffffffffffffffffffffffffffff168152602001428152602001848152602001858152602001600073ffffffffffffffffffffffffffffffffffffffff1681525090507f000000000000000000000000000000000000000000000000000000000000000073ffffffffffffffffffffffffffffffffffffffff1663db3e2198826040518263ffffffff1660e01b81526004016109ff91906116ac565b602060405180830381600087803b158015610a1957600080fd5b505af1158015610a2d573d6000803e3d6000fd5b505050506040513d601f19601f82011682018060405250810190610a519190611181565b915081841115610ade57610aa77f00000000000000000000000000000000000000000000000000000000000000007f00000000000000000000000000000000000000000000000000000000000000006000610cf3565b610add7f0000000000000000000000000000000000000000000000000000000000000000338487610ad891906117f9565b610e48565b5b5060008060006101000a81548160ff02191690831515021790555092915050565b6000808573ffffffffffffffffffffffffffffffffffffffff166323b872dd60e01b868686604051602401610b3693929190611580565b604051602081830303815290604052907bffffffffffffffffffffffffffffffffffffffffffffffffffffffff19166020820180517bffffffffffffffffffffffffffffffffffffffffffffffffffffffff8381831617835250505050604051610ba0919061154e565b6000604051808303816000865af19150503d8060008114610bdd576040519150601f19603f3d011682016040523d82523d6000602084013e610be2565b606091505b5091509150818015610c105750600081511480610c0f575080806020019051810190610c0e919061112f565b5b5b610c4f576040517f08c379a0000000000000000000000000000000000000000000000000000000008152600401610c4690611650565b60405180910390fd5b505050505050565b610cef8282604051602401610c6d9291906115e0565b6040516020818303038152906040527f9710a9d0000000000000000000000000000000000000000000000000000000007bffffffffffffffffffffffffffffffffffffffffffffffffffffffff19166020820180517bffffffffffffffffffffffffffffffffffffffffffffffffffffffff8381831617835250505050610f9d565b5050565b6000808473ffffffffffffffffffffffffffffffffffffffff1663095ea7b360e01b8585604051602401610d289291906115b7565b604051602081830303815290604052907bffffffffffffffffffffffffffffffffffffffffffffffffffffffff19166020820180517bffffffffffffffffffffffffffffffffffffffffffffffffffffffff8381831617835250505050604051610d92919061154e565b6000604051808303816000865af19150503d8060008114610dcf576040519150601f19603f3d011682016040523d82523d6000602084013e610dd4565b606091505b5091509150818015610e025750600081511480610e01575080806020019051810190610e00919061112f565b5b5b610e41576040517f08c379a0000000000000000000000000000000000000000000000000000000008152600401610e3890611610565b60405180910390fd5b5050505050565b6000808473ffffffffffffffffffffffffffffffffffffffff1663a9059cbb60e01b8585604051602401610e7d9291906115b7565b604051602081830303815290604052907bffffffffffffffffffffffffffffffffffffffffffffffffffffffff19166020820180517bffffffffffffffffffffffffffffffffffffffffffffffffffffffff8381831617835250505050604051610ee7919061154e565b6000604051808303816000865af19150503d8060008114610f24576040519150601f19603f3d011682016040523d82523d6000602084013e610f29565b606091505b5091509150818015610f575750600081511480610f56575080806020019051810190610f55919061112f565b5b5b610f96576040517f08c379a0000000000000000000000000000000000000000000000000000000008152600401610f8d90611630565b60405180910390fd5b5050505050565b60008151905060006a636f6e736f6c652e6c6f679050602083016000808483855afa5050505050565b6000610fd9610fd484611762565b61173d565b90508083825260208201905082856020860282011115610ff857600080fd5b60005b85811015611028578161100e88826110b0565b845260208401935060208301925050600181019050610ffb565b5050509392505050565b60008135905061104181611a0d565b92915050565b60008151905061105681611a0d565b92915050565b600082601f83011261106d57600080fd5b815161107d848260208601610fc6565b91505092915050565b60008151905061109581611a24565b92915050565b6000813590506110aa81611a3b565b92915050565b6000815190506110bf81611a3b565b92915050565b6000602082840312156110d757600080fd5b60006110e584828501611047565b91505092915050565b60006020828403121561110057600080fd5b600082015167ffffffffffffffff81111561111a57600080fd5b6111268482850161105c565b91505092915050565b60006020828403121561114157600080fd5b600061114f84828501611086565b91505092915050565b60006020828403121561116a57600080fd5b60006111788482850161109b565b91505092915050565b60006020828403121561119357600080fd5b60006111a1848285016110b0565b91505092915050565b6000806000606084860312156111bf57600080fd5b60006111cd8682870161109b565b93505060206111de86828701611032565b92505060406111ef86828701611032565b9150509250925092565b6000806040838503121561120c57600080fd5b600061121a8582860161109b565b925050602061122b8582860161109b565b9150509250929050565b6000611241838361124d565b60208301905092915050565b6112568161182d565b82525050565b6112658161182d565b82525050565b60006112768261179e565b61128081856117cc565b935061128b8361178e565b8060005b838110156112bc5781516112a38882611235565b97506112ae836117bf565b92505060018101905061128f565b5085935050505092915050565b60006112d4826117a9565b6112de81856117dd565b93506112ee818560208601611896565b80840191505092915050565b61130381611884565b82525050565b6000611314826117b4565b61131e81856117e8565b935061132e818560208601611896565b61133781611958565b840191505092915050565b600061134f6002836117e8565b915061135a82611969565b602082019050919050565b60006113726002836117e8565b915061137d82611992565b602082019050919050565b60006113956003836117e8565b91506113a0826119bb565b602082019050919050565b60006113b8600f836117e8565b91506113c3826119e4565b602082019050919050565b610100820160008201516113e5600085018261124d565b5060208201516113f8602085018261124d565b50604082015161140b6040850182611521565b50606082015161141e606085018261124d565b5060808201516114316080850182611530565b5060a082015161144460a0850182611530565b5060c082015161145760c0850182611530565b5060e082015161146a60e0850182611512565b50505050565b61010082016000820151611487600085018261124d565b50602082015161149a602085018261124d565b5060408201516114ad6040850182611521565b5060608201516114c0606085018261124d565b5060808201516114d36080850182611530565b5060a08201516114e660a0850182611530565b5060c08201516114f960c0850182611530565b5060e082015161150c60e0850182611512565b50505050565b61151b8161184b565b82525050565b61152a8161186b565b82525050565b6115398161187a565b82525050565b6115488161187a565b82525050565b600061155a82846112c9565b915081905092915050565b600060208201905061157a600083018461125c565b92915050565b6000606082019050611595600083018661125c565b6115a2602083018561125c565b6115af604083018461153f565b949350505050565b60006040820190506115cc600083018561125c565b6115d9602083018461153f565b9392505050565b600060408201905081810360008301526115fa8185611309565b9050611609602083018461153f565b9392505050565b6000602082019050818103600083015261162981611342565b9050919050565b6000602082019050818103600083015261164981611365565b9050919050565b6000602082019050818103600083015261166981611388565b9050919050565b60006020820190508181036000830152611689816113ab565b9050919050565b6000610100820190506116a660008301846113ce565b92915050565b6000610100820190506116c26000830184611470565b92915050565b60006020820190506116dd600083018461153f565b92915050565b600060a0820190506116f8600083018861153f565b61170560208301876112fa565b8181036040830152611717818661126b565b9050611726606083018561125c565b611733608083018461153f565b9695505050505050565b6000611747611758565b905061175382826118c9565b919050565b6000604051905090565b600067ffffffffffffffff82111561177d5761177c611929565b5b602082029050602081019050919050565b6000819050602082019050919050565b600081519050919050565b600081519050919050565b600081519050919050565b6000602082019050919050565b600082825260208201905092915050565b600081905092915050565b600082825260208201905092915050565b60006118048261187a565b915061180f8361187a565b925082821015611822576118216118fa565b5b828203905092915050565b60006118388261184b565b9050919050565b60008115159050919050565b600073ffffffffffffffffffffffffffffffffffffffff82169050919050565b600062ffffff82169050919050565b6000819050919050565b600061188f8261187a565b9050919050565b60005b838110156118b4578082015181840152602081019050611899565b838111156118c3576000848401525b50505050565b6118d282611958565b810181811067ffffffffffffffff821117156118f1576118f0611929565b5b80604052505050565b7f4e487b7100000000000000000000000000000000000000000000000000000000600052601160045260246000fd5b7f4e487b7100000000000000000000000000000000000000000000000000000000600052604160045260246000fd5b6000601f19601f8301169050919050565b7f5341000000000000000000000000000000000000000000000000000000000000600082015250565b7f5354000000000000000000000000000000000000000000000000000000000000600082015250565b7f5354460000000000000000000000000000000000000000000000000000000000600082015250565b7f636f6e7472616374206c6f636b64650000000000000000000000000000000000600082015250565b611a168161182d565b8114611a2157600080fd5b50565b611a2d8161183f565b8114611a3857600080fd5b50565b611a448161187a565b8114611a4f57600080fd5b5056fea2646970667358221220333b8d28ead66e947ebc61e85f978e9403a43c8d707e625134317adc3ffc348164736f6c63430008040033","abi":[{"inputs":[{"internalType":"contract ISwapRouter","name":"_router","type":"address"},{"internalType":"address","name":"_token1","type":"address"},{"internalType":"address","name":"_token2","type":"address"},{"internalType":"uint256","name":"_minimumAmountOut","type":"uint256"},{"internalType":"uint24","name":"_poolFee","type":"uint24"}],"stateMutability":"nonpayable","type":"constructor"},{"inputs":[{"internalType":"uint256","name":"_amountIn","type":"uint256"},{"internalType":"address","name":"_token1","type":"address"},{"internalType":"address","name":"_token2","type":"address"}],"name":"swapExactInput","outputs":[{"internalType":"uint256","name":"_amountOut","type":"uint256"}],"stateMutability":"nonpayable","type":"function"},{"inputs":[{"internalType":"uint256","name":"_amountInMaximum","type":"uint256"},{"internalType":"uint256","name":"_amountOut","type":"uint256"}],"name":"swapExactOutput","outputs":[{"internalType":"uint256","name":"_amountIn","type":"uint256"}],"stateMutability":"nonpayable","type":"function"},{"inputs":[{"internalType":"uint256","name":"_amountIn","type":"uint256"}],"name":"swapTokensForTokens","outputs":[],"stateMutability":"nonpayable","type":"function"}]}