{
    "contractName": "Beeswap",
    "abi": [
        {
            "inputs": [
                {
                    "internalType": "contract ISwapRouter",
                    "name": "_router",
                    "type": "address"
                },
                {
                    "internalType": "address",
                    "name": "_token1",
                    "type": "address"
                },
                {
                    "internalType": "address",
                    "name": "_token2",
                    "type": "address"
                },
                {
                    "internalType": "uint256",
                    "name": "_minimumAmountOut",
                    "type": "uint256"
                },
                {
                    "internalType": "uint24",
                    "name": "_poolFee",
                    "type": "uint24"
                }
            ],
            "stateMutability": "nonpayable",
            "type": "constructor"
        },
        {
            "inputs": [
                {
                    "internalType": "uint256",
                    "name": "_amountIn",
                    "type": "uint256"
                }
            ],
            "name": "swapExactInput",
            "outputs": [
                {
                    "internalType": "uint256",
                    "name": "_amountOut",
                    "type": "uint256"
                }
            ],
            "stateMutability": "nonpayable",
            "type": "function"
        },
        {
            "inputs": [
                {
                    "internalType": "uint256",
                    "name": "_amountInMaximum",
                    "type": "uint256"
                },
                {
                    "internalType": "uint256",
                    "name": "_amountOut",
                    "type": "uint256"
                }
            ],
            "name": "swapExactOutput",
            "outputs": [
                {
                    "internalType": "uint256",
                    "name": "_amountIn",
                    "type": "uint256"
                }
            ],
            "stateMutability": "nonpayable",
            "type": "function"
        }
    ],
    "bytecode": "6101206040526000805460ff1916905534801561001b57600080fd5b50604051610adb380380610adb83398101604081905261003a91610114565b6001600160a01b0384166100875760405162461bcd60e51b815260206004820152600f60248201526e696e76616c6964206164647265737360881b60448201526064015b60405180910390fd5b6001600160a01b0383166100cf5760405162461bcd60e51b815260206004820152600f60248201526e696e76616c6964206164647265737360881b604482015260640161007e565b6001600160a01b0394851660805292841660a052921660c05260e09190915262ffffff1661010052610187565b6001600160a01b038116811461011157600080fd5b50565b600080600080600060a0868803121561012c57600080fd5b8551610137816100fc565b6020870151909550610148816100fc565b6040870151909450610159816100fc565b60608701516080880151919450925062ffffff8116811461017957600080fd5b809150509295509295909350565b60805160a05160c05160e051610100516108b7610224600039600081816101a701526103d3015260006101e001526000818161017b01526103a701526000818160d00152818160fb01528181610156015281816102fc0152818161032701528181610382015281816104af01526104fb01526000818161011c0152818161021b015281816103480152818161042801526104d001526108b76000f3fe608060405234801561001057600080fd5b50600436106100365760003560e01c806362f4b5431461003b578063b03a633e14610060575b600080fd5b61004e610049366004610734565b610073565b60405190815260200160405180910390f35b61004e61006e36600461074d565b6102a4565b6000805460ff16156100be5760405162461bcd60e51b815260206004820152600f60248201526e636f6e7472616374206c6f636b646560881b60448201526064015b60405180910390fd5b6000805460ff191660011790556100f67f0000000000000000000000000000000000000000000000000000000000000000308461053b565b6101417f00000000000000000000000000000000000000000000000000000000000000007f00000000000000000000000000000000000000000000000000000000000000008461063b565b60408051610100810182526001600160a01b037f0000000000000000000000000000000000000000000000000000000000000000811682527f00000000000000000000000000000000000000000000000000000000000000008116602083015262ffffff7f0000000000000000000000000000000000000000000000000000000000000000168284015233606083015242608083015260a082018590527f000000000000000000000000000000000000000000000000000000000000000060c0830152600060e0830152915163414bf38960e01b815290917f0000000000000000000000000000000000000000000000000000000000000000169063414bf3899061025090849060040161076f565b6020604051808303816000875af115801561026f573d6000803e3d6000fd5b505050506040513d601f19601f8201168201806040525081019061029391906107df565b6000805460ff191690559392505050565b6000805460ff16156102ea5760405162461bcd60e51b815260206004820152600f60248201526e636f6e7472616374206c6f636b646560881b60448201526064016100b5565b6000805460ff191660011790556103227f0000000000000000000000000000000000000000000000000000000000000000308561053b565b61036d7f00000000000000000000000000000000000000000000000000000000000000007f00000000000000000000000000000000000000000000000000000000000000008561063b565b60408051610100810182526001600160a01b037f0000000000000000000000000000000000000000000000000000000000000000811682527f00000000000000000000000000000000000000000000000000000000000000008116602083015262ffffff7f0000000000000000000000000000000000000000000000000000000000000000168284015233606083015242608083015260a0820185905260c08201869052600060e08301529151631b67c43360e31b815290917f0000000000000000000000000000000000000000000000000000000000000000169063db3e21989061045d90849060040161076f565b6020604051808303816000875af115801561047c573d6000803e3d6000fd5b505050506040513d601f19601f820116820180604052508101906104a091906107df565b91508184111561052a576104f67f00000000000000000000000000000000000000000000000000000000000000007f0000000000000000000000000000000000000000000000000000000000000000600061063b565b61052a7f00000000000000000000000000000000000000000000000000000000000000003361052585886107f8565b61053b565b506000805460ff1916905592915050565b604080516001600160a01b038481166024830152604480830185905283518084039091018152606490920183526020820180516001600160e01b031663a9059cbb60e01b1790529151600092839290871691610597919061081d565b6000604051808303816000865af19150503d80600081146105d4576040519150601f19603f3d011682016040523d82523d6000602084013e6105d9565b606091505b50915091508180156106035750805115806106035750808060200190518101906106039190610858565b6106345760405162461bcd60e51b815260206004820152600260248201526114d560f21b60448201526064016100b5565b5050505050565b604080516001600160a01b038481166024830152604480830185905283518084039091018152606490920183526020820180516001600160e01b031663095ea7b360e01b1790529151600092839290871691610697919061081d565b6000604051808303816000865af19150503d80600081146106d4576040519150601f19603f3d011682016040523d82523d6000602084013e6106d9565b606091505b50915091508180156107035750805115806107035750808060200190518101906107039190610858565b6106345760405162461bcd60e51b8152602060048201526002602482015261534160f01b60448201526064016100b5565b60006020828403121561074657600080fd5b5035919050565b6000806040838503121561076057600080fd5b50508035926020909101359150565b61010081016107d9828480516001600160a01b03908116835260208083015182169084015260408083015162ffffff16908401526060808301518216908401526080808301519084015260a0828101519084015260c0808301519084015260e09182015116910152565b92915050565b6000602082840312156107f157600080fd5b5051919050565b60008282101561081857634e487b7160e01b600052601160045260246000fd5b500390565b6000825160005b8181101561083e5760208186018101518583015201610824565b8181111561084d576000828501525b509190910192915050565b60006020828403121561086a57600080fd5b8151801515811461087a57600080fd5b939250505056fea2646970667358221220790b986ec8eb6a4697c5af06df6c21365d72c8d6d865b643962b87ce29e5ab4364736f6c634300080e0033",
    "sourcePath": "/Users/kwakuadjei/blockchain/Beeswap/contracts/Beeswap/Beeswap.sol",
    "compiler": {
        "name": "solc",
        "version": "0.8.14+commit.80d49f37"
    },
    "functionHashes": {
        "swapExactInput(uint256)": "62f4b543",
        "swapExactOutput(uint256,uint256)": "b03a633e"
    },
    "gasEstimates": {
        "creation": {
            "codeDepositCost": "446200",
            "executionCost": "infinite",
            "totalCost": "infinite"
        },
        "external": {
            "swapExactInput(uint256)": "infinite",
            "swapExactOutput(uint256,uint256)": "infinite"
        }
    }
}