{"address":"0x9fE46736679d2D9a65F0992F2272dE9f3c7fa6e0","bytecode":"0x608060405260008060006101000a81548160ff02191690831515021790555034801561002a57600080fd5b50611bbb8061003a6000396000f3fe608060405234801561001057600080fd5b50600436106100625760003560e01c806322d86338146100675780637b1c1776146100855780638d722988146100b5578063dd62ed3e146100e5578063e09dbe1e14610115578063febe490914610145575b600080fd5b61006f610161565b60405161007c91906115d9565b60405180910390f35b61009f600480360381019061009a9190611040565b6101fa565b6040516100ac919061167d565b60405180910390f35b6100cf60048036038101906100ca91906111c1565b61043c565b6040516100dc9190611799565b60405180910390f35b6100ff60048036038101906100fa9190611004565b610634565b60405161010c9190611799565b60405180910390f35b61012f600480360381019061012a919061108f565b6106ce565b60405161013c9190611799565b60405180910390f35b61015f600480360381019061015a9190611185565b610904565b005b6000737a250d5630b4cf539739df2c5dacb4c659f2488d73ffffffffffffffffffffffffffffffffffffffff1663ad5c46486040518163ffffffff1660e01b815260040160206040518083038186803b1580156101bd57600080fd5b505afa1580156101d1573d6000803e3d6000fd5b505050506040513d601f19601f820116820180604052508101906101f59190610fdb565b905090565b606061020884333085610a18565b6102278473e592427a0aece92de3edee1f18e0157c0586156484610b70565b6000600267ffffffffffffffff81111561026a577f4e487b7100000000000000000000000000000000000000000000000000000000600052604160045260246000fd5b6040519080825280602002602001820160405280156102985781602001602082028036833780820191505090505b50905084816000815181106102d6577f4e487b7100000000000000000000000000000000000000000000000000000000600052603260045260246000fd5b602002602001019073ffffffffffffffffffffffffffffffffffffffff16908173ffffffffffffffffffffffffffffffffffffffff1681525050838160018151811061034b577f4e487b7100000000000000000000000000000000000000000000000000000000600052603260045260246000fd5b602002602001019073ffffffffffffffffffffffffffffffffffffffff16908173ffffffffffffffffffffffffffffffffffffffff1681525050737a250d5630b4cf539739df2c5dacb4c659f2488d73ffffffffffffffffffffffffffffffffffffffff166338ed17398460018433426040518663ffffffff1660e01b81526004016103db9594939291906117b4565b600060405180830381600087803b1580156103f557600080fd5b505af1158015610409573d6000803e3d6000fd5b505050506040513d6000823e3d601f19601f8201168201806040525081019061043291906110f2565b9150509392505050565b60008060009054906101000a900460ff161561048d576040517f08c379a000000000000000000000000000000000000000000000000000000000815260040161048490611741565b60405180910390fd5b60016000806101000a81548160ff0219169083151502179055506104b383333087610a18565b6104d28373e592427a0aece92de3edee1f18e0157c0586156486610b70565b60006040518061010001604052808573ffffffffffffffffffffffffffffffffffffffff1681526020018473ffffffffffffffffffffffffffffffffffffffff168152602001610bb862ffffff1681526020013373ffffffffffffffffffffffffffffffffffffffff16815260200142815260200186815260200160008152602001600073ffffffffffffffffffffffffffffffffffffffff16815250905073e592427a0aece92de3edee1f18e0157c0586156473ffffffffffffffffffffffffffffffffffffffff1663414bf389826040518263ffffffff1660e01b81526004016105be9190611761565b602060405180830381600087803b1580156105d857600080fd5b505af11580156105ec573d6000803e3d6000fd5b505050506040513d601f19601f82011682018060405250810190610610919061115c565b91505060008060006101000a81548160ff0219169083151502179055509392505050565b6000808273ffffffffffffffffffffffffffffffffffffffff1663dd62ed3e33866040518363ffffffff1660e01b81526004016106729291906115f4565b60206040518083038186803b15801561068a57600080fd5b505afa15801561069e573d6000803e3d6000fd5b505050506040513d601f19601f820116820180604052508101906106c2919061115c565b90508091505092915050565b60008060009054906101000a900460ff161561071f576040517f08c379a000000000000000000000000000000000000000000000000000000000815260040161071690611741565b60405180910390fd5b60016000806101000a81548160ff021916908315150217905550610744853085610cc5565b6107638573e592427a0aece92de3edee1f18e0157c0586156485610b70565b60006040518061010001604052808773ffffffffffffffffffffffffffffffffffffffff1681526020018673ffffffffffffffffffffffffffffffffffffffff168152602001610bb862ffffff1681526020013373ffffffffffffffffffffffffffffffffffffffff168152602001428152602001848152602001858152602001600073ffffffffffffffffffffffffffffffffffffffff16815250905073e592427a0aece92de3edee1f18e0157c0586156473ffffffffffffffffffffffffffffffffffffffff1663db3e2198826040518263ffffffff1660e01b815260040161084e919061177d565b602060405180830381600087803b15801561086857600080fd5b505af115801561087c573d6000803e3d6000fd5b505050506040513d601f19601f820116820180604052508101906108a0919061115c565b9150818411156108e1576108ca8673e592427a0aece92de3edee1f18e0157c058615646000610b70565b6108e0863384876108db9190611903565b610cc5565b5b5060008060006101000a81548160ff021916908315150217905550949350505050565b60008173ffffffffffffffffffffffffffffffffffffffff1663095ea7b330856040518363ffffffff1660e01b8152600401610941929190611654565b602060405180830381600087803b15801561095b57600080fd5b505af115801561096f573d6000803e3d6000fd5b505050506040513d601f19601f820116820180604052508101906109939190611133565b9050806109d5576040517f08c379a00000000000000000000000000000000000000000000000000000000081526004016109cc90611721565b60405180910390fd5b610a136040518060400160405280600881526020017f617070726f766564000000000000000000000000000000000000000000000000815250610e1a565b505050565b6000808573ffffffffffffffffffffffffffffffffffffffff166323b872dd60e01b868686604051602401610a4f9392919061161d565b604051602081830303815290604052907bffffffffffffffffffffffffffffffffffffffffffffffffffffffff19166020820180517bffffffffffffffffffffffffffffffffffffffffffffffffffffffff8381831617835250505050604051610ab991906115c2565b6000604051808303816000865af19150503d8060008114610af6576040519150601f19603f3d011682016040523d82523d6000602084013e610afb565b606091505b5091509150818015610b295750600081511480610b28575080806020019051810190610b279190611133565b5b5b610b68576040517f08c379a0000000000000000000000000000000000000000000000000000000008152600401610b5f90611701565b60405180910390fd5b505050505050565b6000808473ffffffffffffffffffffffffffffffffffffffff1663095ea7b360e01b8585604051602401610ba5929190611654565b604051602081830303815290604052907bffffffffffffffffffffffffffffffffffffffffffffffffffffffff19166020820180517bffffffffffffffffffffffffffffffffffffffffffffffffffffffff8381831617835250505050604051610c0f91906115c2565b6000604051808303816000865af19150503d8060008114610c4c576040519150601f19603f3d011682016040523d82523d6000602084013e610c51565b606091505b5091509150818015610c7f5750600081511480610c7e575080806020019051810190610c7d9190611133565b5b5b610cbe576040517f08c379a0000000000000000000000000000000000000000000000000000000008152600401610cb5906116c1565b60405180910390fd5b5050505050565b6000808473ffffffffffffffffffffffffffffffffffffffff1663a9059cbb60e01b8585604051602401610cfa929190611654565b604051602081830303815290604052907bffffffffffffffffffffffffffffffffffffffffffffffffffffffff19166020820180517bffffffffffffffffffffffffffffffffffffffffffffffffffffffff8381831617835250505050604051610d6491906115c2565b6000604051808303816000865af19150503d8060008114610da1576040519150601f19603f3d011682016040523d82523d6000602084013e610da6565b606091505b5091509150818015610dd45750600081511480610dd3575080806020019051810190610dd29190611133565b5b5b610e13576040517f08c379a0000000000000000000000000000000000000000000000000000000008152600401610e0a906116e1565b60405180910390fd5b5050505050565b610eb081604051602401610e2e919061169f565b6040516020818303038152906040527f41304fac000000000000000000000000000000000000000000000000000000007bffffffffffffffffffffffffffffffffffffffffffffffffffffffff19166020820180517bffffffffffffffffffffffffffffffffffffffffffffffffffffffff8381831617835250505050610eb3565b50565b60008151905060006a636f6e736f6c652e6c6f679050602083016000808483855afa5050505050565b6000610eef610eea84611833565b61180e565b90508083825260208201905082856020860282011115610f0e57600080fd5b60005b85811015610f3e5781610f248882610fc6565b845260208401935060208301925050600181019050610f11565b5050509392505050565b600081359050610f5781611b40565b92915050565b600081519050610f6c81611b40565b92915050565b600082601f830112610f8357600080fd5b8151610f93848260208601610edc565b91505092915050565b600081519050610fab81611b57565b92915050565b600081359050610fc081611b6e565b92915050565b600081519050610fd581611b6e565b92915050565b600060208284031215610fed57600080fd5b6000610ffb84828501610f5d565b91505092915050565b6000806040838503121561101757600080fd5b600061102585828601610f48565b925050602061103685828601610f48565b9150509250929050565b60008060006060848603121561105557600080fd5b600061106386828701610f48565b935050602061107486828701610f48565b925050604061108586828701610fb1565b9150509250925092565b600080600080608085870312156110a557600080fd5b60006110b387828801610f48565b94505060206110c487828801610f48565b93505060406110d587828801610fb1565b92505060606110e687828801610fb1565b91505092959194509250565b60006020828403121561110457600080fd5b600082015167ffffffffffffffff81111561111e57600080fd5b61112a84828501610f72565b91505092915050565b60006020828403121561114557600080fd5b600061115384828501610f9c565b91505092915050565b60006020828403121561116e57600080fd5b600061117c84828501610fc6565b91505092915050565b6000806040838503121561119857600080fd5b60006111a685828601610fb1565b92505060206111b785828601610f48565b9150509250929050565b6000806000606084860312156111d657600080fd5b60006111e486828701610fb1565b93505060206111f586828701610f48565b925050604061120686828701610f48565b9150509250925092565b600061121c8383611240565b60208301905092915050565b600061123483836115a4565b60208301905092915050565b61124981611937565b82525050565b61125881611937565b82525050565b60006112698261187f565b61127381856118c5565b935061127e8361185f565b8060005b838110156112af5781516112968882611210565b97506112a1836118ab565b925050600181019050611282565b5085935050505092915050565b60006112c78261188a565b6112d181856118d6565b93506112dc8361186f565b8060005b8381101561130d5781516112f48882611228565b97506112ff836118b8565b9250506001810190506112e0565b5085935050505092915050565b600061132582611895565b61132f81856118e7565b935061133f8185602086016119a0565b80840191505092915050565b6113548161198e565b82525050565b6000611365826118a0565b61136f81856118f2565b935061137f8185602086016119a0565b61138881611a62565b840191505092915050565b60006113a06002836118f2565b91506113ab82611a73565b602082019050919050565b60006113c36002836118f2565b91506113ce82611a9c565b602082019050919050565b60006113e66003836118f2565b91506113f182611ac5565b602082019050919050565b6000611409600f836118f2565b915061141482611aee565b602082019050919050565b600061142c600f836118f2565b915061143782611b17565b602082019050919050565b610100820160008201516114596000850182611240565b50602082015161146c6020850182611240565b50604082015161147f6040850182611595565b5060608201516114926060850182611240565b5060808201516114a560808501826115a4565b5060a08201516114b860a08501826115a4565b5060c08201516114cb60c08501826115a4565b5060e08201516114de60e0850182611586565b50505050565b610100820160008201516114fb6000850182611240565b50602082015161150e6020850182611240565b5060408201516115216040850182611595565b5060608201516115346060850182611240565b50608082015161154760808501826115a4565b5060a082015161155a60a08501826115a4565b5060c082015161156d60c08501826115a4565b5060e082015161158060e0850182611586565b50505050565b61158f81611955565b82525050565b61159e81611975565b82525050565b6115ad81611984565b82525050565b6115bc81611984565b82525050565b60006115ce828461131a565b915081905092915050565b60006020820190506115ee600083018461124f565b92915050565b6000604082019050611609600083018561124f565b611616602083018461124f565b9392505050565b6000606082019050611632600083018661124f565b61163f602083018561124f565b61164c60408301846115b3565b949350505050565b6000604082019050611669600083018561124f565b61167660208301846115b3565b9392505050565b6000602082019050818103600083015261169781846112bc565b905092915050565b600060208201905081810360008301526116b9818461135a565b905092915050565b600060208201905081810360008301526116da81611393565b9050919050565b600060208201905081810360008301526116fa816113b6565b9050919050565b6000602082019050818103600083015261171a816113d9565b9050919050565b6000602082019050818103600083015261173a816113fc565b9050919050565b6000602082019050818103600083015261175a8161141f565b9050919050565b6000610100820190506117776000830184611442565b92915050565b60006101008201905061179360008301846114e4565b92915050565b60006020820190506117ae60008301846115b3565b92915050565b600060a0820190506117c960008301886115b3565b6117d6602083018761134b565b81810360408301526117e8818661125e565b90506117f7606083018561124f565b61180460808301846115b3565b9695505050505050565b6000611818611829565b905061182482826119d3565b919050565b6000604051905090565b600067ffffffffffffffff82111561184e5761184d611a33565b5b602082029050602081019050919050565b6000819050602082019050919050565b6000819050602082019050919050565b600081519050919050565b600081519050919050565b600081519050919050565b600081519050919050565b6000602082019050919050565b6000602082019050919050565b600082825260208201905092915050565b600082825260208201905092915050565b600081905092915050565b600082825260208201905092915050565b600061190e82611984565b915061191983611984565b92508282101561192c5761192b611a04565b5b828203905092915050565b600061194282611955565b9050919050565b60008115159050919050565b600073ffffffffffffffffffffffffffffffffffffffff82169050919050565b600062ffffff82169050919050565b6000819050919050565b600061199982611984565b9050919050565b60005b838110156119be5780820151818401526020810190506119a3565b838111156119cd576000848401525b50505050565b6119dc82611a62565b810181811067ffffffffffffffff821117156119fb576119fa611a33565b5b80604052505050565b7f4e487b7100000000000000000000000000000000000000000000000000000000600052601160045260246000fd5b7f4e487b7100000000000000000000000000000000000000000000000000000000600052604160045260246000fd5b6000601f19601f8301169050919050565b7f5341000000000000000000000000000000000000000000000000000000000000600082015250565b7f5354000000000000000000000000000000000000000000000000000000000000600082015250565b7f5354460000000000000000000000000000000000000000000000000000000000600082015250565b7f617070726f76616c206661696c65640000000000000000000000000000000000600082015250565b7f636f6e7472616374206c6f636b64650000000000000000000000000000000000600082015250565b611b4981611937565b8114611b5457600080fd5b50565b611b6081611949565b8114611b6b57600080fd5b50565b611b7781611984565b8114611b8257600080fd5b5056fea2646970667358221220a0d39343f045728fe390d4723fb8ce2a2156a333b432ded54a904afe2432953564736f6c63430008040033","abi":[{"inputs":[{"internalType":"address","name":"spender","type":"address"},{"internalType":"address","name":"token","type":"address"}],"name":"allowance","outputs":[{"internalType":"uint256","name":"","type":"uint256"}],"stateMutability":"nonpayable","type":"function"},{"inputs":[{"internalType":"uint256","name":"_amount","type":"uint256"},{"internalType":"address","name":"token","type":"address"}],"name":"approve","outputs":[],"stateMutability":"nonpayable","type":"function"},{"inputs":[{"internalType":"uint256","name":"_amountIn","type":"uint256"},{"internalType":"address","name":"_token1","type":"address"},{"internalType":"address","name":"_token2","type":"address"}],"name":"swapExactInput","outputs":[{"internalType":"uint256","name":"_amountOut","type":"uint256"}],"stateMutability":"nonpayable","type":"function"},{"inputs":[{"internalType":"address","name":"token1","type":"address"},{"internalType":"address","name":"token2","type":"address"},{"internalType":"uint256","name":"_amountInMaximum","type":"uint256"},{"internalType":"uint256","name":"_amountOut","type":"uint256"}],"name":"swapExactOutput","outputs":[{"internalType":"uint256","name":"_amountIn","type":"uint256"}],"stateMutability":"nonpayable","type":"function"},{"inputs":[{"internalType":"address","name":"token1","type":"address"},{"internalType":"address","name":"token2","type":"address"},{"internalType":"uint256","name":"_amountIn","type":"uint256"}],"name":"swapTokensForTokens","outputs":[{"internalType":"uint256[]","name":"amounts","type":"uint256[]"}],"stateMutability":"nonpayable","type":"function"},{"inputs":[],"name":"testWeth","outputs":[{"internalType":"address","name":"weth","type":"address"}],"stateMutability":"nonpayable","type":"function"}]}