{"address":"0x9fE46736679d2D9a65F0992F2272dE9f3c7fa6e0","bytecode":"0x61012060405260008060006101000a81548160ff0219169083151502179055503480156200002c57600080fd5b5060405162001d2e38038062001d2e833981810160405281019062000052919062000262565b600073ffffffffffffffffffffffffffffffffffffffff168473ffffffffffffffffffffffffffffffffffffffff161415620000c5576040517f08c379a0000000000000000000000000000000000000000000000000000000008152600401620000bc906200030b565b60405180910390fd5b600073ffffffffffffffffffffffffffffffffffffffff168373ffffffffffffffffffffffffffffffffffffffff16141562000138576040517f08c379a00000000000000000000000000000000000000000000000000000000081526004016200012f906200030b565b60405180910390fd5b8473ffffffffffffffffffffffffffffffffffffffff1660808173ffffffffffffffffffffffffffffffffffffffff1660601b815250508373ffffffffffffffffffffffffffffffffffffffff1660a08173ffffffffffffffffffffffffffffffffffffffff1660601b815250508273ffffffffffffffffffffffffffffffffffffffff1660c08173ffffffffffffffffffffffffffffffffffffffff1660601b815250508160e081815250508062ffffff166101008162ffffff1660e81b81525050505050505062000430565b6000815190506200021781620003c8565b92915050565b6000815190506200022e81620003e2565b92915050565b6000815190506200024581620003fc565b92915050565b6000815190506200025c8162000416565b92915050565b600080600080600060a086880312156200027b57600080fd5b60006200028b888289016200021d565b95505060206200029e8882890162000206565b9450506040620002b18882890162000206565b9350506060620002c4888289016200024b565b9250506080620002d78882890162000234565b9150509295509295909350565b6000620002f3600f836200032d565b915062000300826200039f565b602082019050919050565b600060208201905081810360008301526200032681620002e4565b9050919050565b600082825260208201905092915050565b60006200034b8262000366565b9050919050565b60006200035f826200033e565b9050919050565b600073ffffffffffffffffffffffffffffffffffffffff82169050919050565b600062ffffff82169050919050565b6000819050919050565b7f696e76616c696420616464726573730000000000000000000000000000000000600082015250565b620003d3816200033e565b8114620003df57600080fd5b50565b620003ed8162000352565b8114620003f957600080fd5b50565b620004078162000386565b81146200041357600080fd5b50565b620004218162000395565b81146200042d57600080fd5b50565b60805160601c60a05160601c60c05160601c60e0516101005160e81c61184d620004e16000396000818161057f015261084b015260006105d201526000818161034f015261080f01526000818160c70152818160f301528181610245015281816107520152818161077d015281816107d30152818161097901526109c501526000818161011401528181610512015281816106150152818161079e015281816108c1015261099a015261184d6000f3fe608060405234801561001057600080fd5b50600436106100415760003560e01c806325007a0f146100465780638d72298814610062578063b03a633e14610092575b600080fd5b610060600480360381019061005b9190610fac565b6100c2565b005b61007c60048036038101906100779190610ffe565b610495565b6040516100899190611498565b60405180910390f35b6100ac60048036038101906100a7919061104d565b6106e2565b6040516100b99190611498565b60405180910390f35b6100ee7f0000000000000000000000000000000000000000000000000000000000000000333084610a18565b6101397f00000000000000000000000000000000000000000000000000000000000000007f000000000000000000000000000000000000000000000000000000000000000083610b70565b6000737a250d5630b4cf539739df2c5dacb4c659f2488d73ffffffffffffffffffffffffffffffffffffffff1663ad5c46486040518163ffffffff1660e01b815260040160206040518083038186803b15801561019557600080fd5b505afa1580156101a9573d6000803e3d6000fd5b505050506040513d601f19601f820116820180604052508101906101cd9190610f19565b90506000600367ffffffffffffffff811115610212577f4e487b7100000000000000000000000000000000000000000000000000000000600052604160045260246000fd5b6040519080825280602002602001820160405280156102405781602001602082028036833780820191505090505b5090507f00000000000000000000000000000000000000000000000000000000000000008160008151811061029e577f4e487b7100000000000000000000000000000000000000000000000000000000600052603260045260246000fd5b602002602001019073ffffffffffffffffffffffffffffffffffffffff16908173ffffffffffffffffffffffffffffffffffffffff16815250508181600181518110610313577f4e487b7100000000000000000000000000000000000000000000000000000000600052603260045260246000fd5b602002602001019073ffffffffffffffffffffffffffffffffffffffff16908173ffffffffffffffffffffffffffffffffffffffff16815250507f0000000000000000000000000000000000000000000000000000000000000000816002815181106103a8577f4e487b7100000000000000000000000000000000000000000000000000000000600052603260045260246000fd5b602002602001019073ffffffffffffffffffffffffffffffffffffffff16908173ffffffffffffffffffffffffffffffffffffffff1681525050737a250d5630b4cf539739df2c5dacb4c659f2488d73ffffffffffffffffffffffffffffffffffffffff166338ed17398460018433426040518663ffffffff1660e01b81526004016104389594939291906114b3565b600060405180830381600087803b15801561045257600080fd5b505af1158015610466573d6000803e3d6000fd5b505050506040513d6000823e3d601f19601f8201168201806040525081019061048f9190610f42565b50505050565b60008060009054906101000a900460ff16156104e6576040517f08c379a00000000000000000000000000000000000000000000000000000000081526004016104dd90611440565b60405180910390fd5b60016000806101000a81548160ff02191690831515021790555061050c83333087610a18565b610537837f000000000000000000000000000000000000000000000000000000000000000086610b70565b60006040518061010001604052808573ffffffffffffffffffffffffffffffffffffffff1681526020018473ffffffffffffffffffffffffffffffffffffffff1681526020017f000000000000000000000000000000000000000000000000000000000000000062ffffff1681526020013373ffffffffffffffffffffffffffffffffffffffff1681526020014281526020018681526020017f00000000000000000000000000000000000000000000000000000000000000008152602001600073ffffffffffffffffffffffffffffffffffffffff1681525090507f000000000000000000000000000000000000000000000000000000000000000073ffffffffffffffffffffffffffffffffffffffff1663414bf389826040518263ffffffff1660e01b815260040161066c9190611460565b602060405180830381600087803b15801561068657600080fd5b505af115801561069a573d6000803e3d6000fd5b505050506040513d601f19601f820116820180604052508101906106be9190610fd5565b91505060008060006101000a81548160ff0219169083151502179055509392505050565b60008060009054906101000a900460ff1615610733576040517f08c379a000000000000000000000000000000000000000000000000000000000815260040161072a90611440565b60405180910390fd5b60016000806101000a81548160ff0219169083151502179055506107787f00000000000000000000000000000000000000000000000000000000000000003085610cc5565b6107c37f00000000000000000000000000000000000000000000000000000000000000007f000000000000000000000000000000000000000000000000000000000000000085610b70565b60006040518061010001604052807f000000000000000000000000000000000000000000000000000000000000000073ffffffffffffffffffffffffffffffffffffffff1681526020017f000000000000000000000000000000000000000000000000000000000000000073ffffffffffffffffffffffffffffffffffffffff1681526020017f000000000000000000000000000000000000000000000000000000000000000062ffffff1681526020013373ffffffffffffffffffffffffffffffffffffffff168152602001428152602001848152602001858152602001600073ffffffffffffffffffffffffffffffffffffffff1681525090507f000000000000000000000000000000000000000000000000000000000000000073ffffffffffffffffffffffffffffffffffffffff1663db3e2198826040518263ffffffff1660e01b8152600401610918919061147c565b602060405180830381600087803b15801561093257600080fd5b505af1158015610946573d6000803e3d6000fd5b505050506040513d601f19601f8201168201806040525081019061096a9190610fd5565b9150818411156109f7576109c07f00000000000000000000000000000000000000000000000000000000000000007f00000000000000000000000000000000000000000000000000000000000000006000610b70565b6109f67f00000000000000000000000000000000000000000000000000000000000000003384876109f191906115be565b610cc5565b5b5060008060006101000a81548160ff02191690831515021790555092915050565b6000808573ffffffffffffffffffffffffffffffffffffffff166323b872dd60e01b868686604051602401610a4f93929190611380565b604051602081830303815290604052907bffffffffffffffffffffffffffffffffffffffffffffffffffffffff19166020820180517bffffffffffffffffffffffffffffffffffffffffffffffffffffffff8381831617835250505050604051610ab99190611369565b6000604051808303816000865af19150503d8060008114610af6576040519150601f19603f3d011682016040523d82523d6000602084013e610afb565b606091505b5091509150818015610b295750600081511480610b28575080806020019051810190610b279190610f83565b5b5b610b68576040517f08c379a0000000000000000000000000000000000000000000000000000000008152600401610b5f90611420565b60405180910390fd5b505050505050565b6000808473ffffffffffffffffffffffffffffffffffffffff1663095ea7b360e01b8585604051602401610ba59291906113b7565b604051602081830303815290604052907bffffffffffffffffffffffffffffffffffffffffffffffffffffffff19166020820180517bffffffffffffffffffffffffffffffffffffffffffffffffffffffff8381831617835250505050604051610c0f9190611369565b6000604051808303816000865af19150503d8060008114610c4c576040519150601f19603f3d011682016040523d82523d6000602084013e610c51565b606091505b5091509150818015610c7f5750600081511480610c7e575080806020019051810190610c7d9190610f83565b5b5b610cbe576040517f08c379a0000000000000000000000000000000000000000000000000000000008152600401610cb5906113e0565b60405180910390fd5b5050505050565b6000808473ffffffffffffffffffffffffffffffffffffffff1663a9059cbb60e01b8585604051602401610cfa9291906113b7565b604051602081830303815290604052907bffffffffffffffffffffffffffffffffffffffffffffffffffffffff19166020820180517bffffffffffffffffffffffffffffffffffffffffffffffffffffffff8381831617835250505050604051610d649190611369565b6000604051808303816000865af19150503d8060008114610da1576040519150601f19603f3d011682016040523d82523d6000602084013e610da6565b606091505b5091509150818015610dd45750600081511480610dd3575080806020019051810190610dd29190610f83565b5b5b610e13576040517f08c379a0000000000000000000000000000000000000000000000000000000008152600401610e0a90611400565b60405180910390fd5b5050505050565b6000610e2d610e2884611532565b61150d565b90508083825260208201905082856020860282011115610e4c57600080fd5b60005b85811015610e7c5781610e628882610f04565b845260208401935060208301925050600181019050610e4f565b5050509392505050565b600081359050610e95816117d2565b92915050565b600081519050610eaa816117d2565b92915050565b600082601f830112610ec157600080fd5b8151610ed1848260208601610e1a565b91505092915050565b600081519050610ee9816117e9565b92915050565b600081359050610efe81611800565b92915050565b600081519050610f1381611800565b92915050565b600060208284031215610f2b57600080fd5b6000610f3984828501610e9b565b91505092915050565b600060208284031215610f5457600080fd5b600082015167ffffffffffffffff811115610f6e57600080fd5b610f7a84828501610eb0565b91505092915050565b600060208284031215610f9557600080fd5b6000610fa384828501610eda565b91505092915050565b600060208284031215610fbe57600080fd5b6000610fcc84828501610eef565b91505092915050565b600060208284031215610fe757600080fd5b6000610ff584828501610f04565b91505092915050565b60008060006060848603121561101357600080fd5b600061102186828701610eef565b935050602061103286828701610e86565b925050604061104386828701610e86565b9150509250925092565b6000806040838503121561106057600080fd5b600061106e85828601610eef565b925050602061107f85828601610eef565b9150509250929050565b600061109583836110a1565b60208301905092915050565b6110aa816115f2565b82525050565b6110b9816115f2565b82525050565b60006110ca8261156e565b6110d48185611591565b93506110df8361155e565b8060005b838110156111105781516110f78882611089565b975061110283611584565b9250506001810190506110e3565b5085935050505092915050565b600061112882611579565b61113281856115a2565b935061114281856020860161165b565b80840191505092915050565b61115781611649565b82525050565b600061116a6002836115ad565b91506111758261172e565b602082019050919050565b600061118d6002836115ad565b915061119882611757565b602082019050919050565b60006111b06003836115ad565b91506111bb82611780565b602082019050919050565b60006111d3600f836115ad565b91506111de826117a9565b602082019050919050565b6101008201600082015161120060008501826110a1565b50602082015161121360208501826110a1565b506040820151611226604085018261133c565b50606082015161123960608501826110a1565b50608082015161124c608085018261134b565b5060a082015161125f60a085018261134b565b5060c082015161127260c085018261134b565b5060e082015161128560e085018261132d565b50505050565b610100820160008201516112a260008501826110a1565b5060208201516112b560208501826110a1565b5060408201516112c8604085018261133c565b5060608201516112db60608501826110a1565b5060808201516112ee608085018261134b565b5060a082015161130160a085018261134b565b5060c082015161131460c085018261134b565b5060e082015161132760e085018261132d565b50505050565b61133681611610565b82525050565b61134581611630565b82525050565b6113548161163f565b82525050565b6113638161163f565b82525050565b6000611375828461111d565b915081905092915050565b600060608201905061139560008301866110b0565b6113a260208301856110b0565b6113af604083018461135a565b949350505050565b60006040820190506113cc60008301856110b0565b6113d9602083018461135a565b9392505050565b600060208201905081810360008301526113f98161115d565b9050919050565b6000602082019050818103600083015261141981611180565b9050919050565b60006020820190508181036000830152611439816111a3565b9050919050565b60006020820190508181036000830152611459816111c6565b9050919050565b60006101008201905061147660008301846111e9565b92915050565b600061010082019050611492600083018461128b565b92915050565b60006020820190506114ad600083018461135a565b92915050565b600060a0820190506114c8600083018861135a565b6114d5602083018761114e565b81810360408301526114e781866110bf565b90506114f660608301856110b0565b611503608083018461135a565b9695505050505050565b6000611517611528565b9050611523828261168e565b919050565b6000604051905090565b600067ffffffffffffffff82111561154d5761154c6116ee565b5b602082029050602081019050919050565b6000819050602082019050919050565b600081519050919050565b600081519050919050565b6000602082019050919050565b600082825260208201905092915050565b600081905092915050565b600082825260208201905092915050565b60006115c98261163f565b91506115d48361163f565b9250828210156115e7576115e66116bf565b5b828203905092915050565b60006115fd82611610565b9050919050565b60008115159050919050565b600073ffffffffffffffffffffffffffffffffffffffff82169050919050565b600062ffffff82169050919050565b6000819050919050565b60006116548261163f565b9050919050565b60005b8381101561167957808201518184015260208101905061165e565b83811115611688576000848401525b50505050565b6116978261171d565b810181811067ffffffffffffffff821117156116b6576116b56116ee565b5b80604052505050565b7f4e487b7100000000000000000000000000000000000000000000000000000000600052601160045260246000fd5b7f4e487b7100000000000000000000000000000000000000000000000000000000600052604160045260246000fd5b6000601f19601f8301169050919050565b7f5341000000000000000000000000000000000000000000000000000000000000600082015250565b7f5354000000000000000000000000000000000000000000000000000000000000600082015250565b7f5354460000000000000000000000000000000000000000000000000000000000600082015250565b7f636f6e7472616374206c6f636b64650000000000000000000000000000000000600082015250565b6117db816115f2565b81146117e657600080fd5b50565b6117f281611604565b81146117fd57600080fd5b50565b6118098161163f565b811461181457600080fd5b5056fea2646970667358221220b2e42b87627fc4d65231ab31dc44fa397411cdd88e91316a73914ea966e9e64464736f6c63430008040033","abi":[{"inputs":[{"internalType":"contract ISwapRouter","name":"_router","type":"address"},{"internalType":"address","name":"_token1","type":"address"},{"internalType":"address","name":"_token2","type":"address"},{"internalType":"uint256","name":"_minimumAmountOut","type":"uint256"},{"internalType":"uint24","name":"_poolFee","type":"uint24"}],"stateMutability":"nonpayable","type":"constructor"},{"inputs":[{"internalType":"uint256","name":"_amountIn","type":"uint256"},{"internalType":"address","name":"_token1","type":"address"},{"internalType":"address","name":"_token2","type":"address"}],"name":"swapExactInput","outputs":[{"internalType":"uint256","name":"_amountOut","type":"uint256"}],"stateMutability":"nonpayable","type":"function"},{"inputs":[{"internalType":"uint256","name":"_amountInMaximum","type":"uint256"},{"internalType":"uint256","name":"_amountOut","type":"uint256"}],"name":"swapExactOutput","outputs":[{"internalType":"uint256","name":"_amountIn","type":"uint256"}],"stateMutability":"nonpayable","type":"function"},{"inputs":[{"internalType":"uint256","name":"_amountIn","type":"uint256"}],"name":"swapTokensForTokens","outputs":[],"stateMutability":"nonpayable","type":"function"}]}